{
  "contractName": "TrividUserContract",
  "abi": [
    {
      "inputs": [
        {
          "internalType": "address",
          "name": "nftAdd",
          "type": "address"
        },
        {
          "internalType": "address",
          "name": "deployer",
          "type": "address"
        }
      ],
      "stateMutability": "nonpayable",
      "type": "constructor"
    },
    {
      "inputs": [],
      "name": "userCount",
      "outputs": [
        {
          "internalType": "uint256",
          "name": "_value",
          "type": "uint256"
        }
      ],
      "stateMutability": "view",
      "type": "function",
      "constant": true
    },
    {
      "inputs": [
        {
          "internalType": "address",
          "name": "",
          "type": "address"
        }
      ],
      "name": "userRegistered",
      "outputs": [
        {
          "internalType": "bool",
          "name": "",
          "type": "bool"
        }
      ],
      "stateMutability": "view",
      "type": "function",
      "constant": true
    },
    {
      "inputs": [
        {
          "internalType": "address",
          "name": "newUser",
          "type": "address"
        }
      ],
      "name": "registerUser",
      "outputs": [],
      "stateMutability": "nonpayable",
      "type": "function"
    },
    {
      "inputs": [
        {
          "internalType": "address",
          "name": "userAdd",
          "type": "address"
        }
      ],
      "name": "isRegistered",
      "outputs": [
        {
          "internalType": "bool",
          "name": "",
          "type": "bool"
        }
      ],
      "stateMutability": "view",
      "type": "function",
      "constant": true
    }
  ],
  "bytecode": "0x608060405234801561001057600080fd5b5060405161061238038061061283398181016040528101906100329190610191565b600160008190555081600360006101000a81548173ffffffffffffffffffffffffffffffffffffffff021916908373ffffffffffffffffffffffffffffffffffffffff16021790555080600460006101000a81548173ffffffffffffffffffffffffffffffffffffffff021916908373ffffffffffffffffffffffffffffffffffffffff1602179055508173ffffffffffffffffffffffffffffffffffffffff16639d6e8a89306040518263ffffffff1660e01b81526004016100f591906101e0565b600060405180830381600087803b15801561010f57600080fd5b505af1158015610123573d6000803e3d6000fd5b5050505050506101fb565b600080fd5b600073ffffffffffffffffffffffffffffffffffffffff82169050919050565b600061015e82610133565b9050919050565b61016e81610153565b811461017957600080fd5b50565b60008151905061018b81610165565b92915050565b600080604083850312156101a8576101a761012e565b5b60006101b68582860161017c565b92505060206101c78582860161017c565b9150509250929050565b6101da81610153565b82525050565b60006020820190506101f560008301846101d1565b92915050565b6104088061020a6000396000f3fe608060405234801561001057600080fd5b506004361061004c5760003560e01c806307973ccf146100515780632199d5cd1461006f578063bccbc36c1461008b578063c3c5a547146100bb575b600080fd5b6100596100eb565b6040516100669190610274565b60405180910390f35b610089600480360381019061008491906102f2565b6100f7565b005b6100a560048036038101906100a091906102f2565b6101e5565b6040516100b2919061033a565b60405180910390f35b6100d560048036038101906100d091906102f2565b610205565b6040516100e2919061033a565b60405180910390f35b60018060000154905081565b60011515600260008373ffffffffffffffffffffffffffffffffffffffff1673ffffffffffffffffffffffffffffffffffffffff16815260200190815260200160002060009054906101000a900460ff1615150361018a576040517f08c379a0000000000000000000000000000000000000000000000000000000008152600401610181906103b2565b60405180910390fd5b6001600260008373ffffffffffffffffffffffffffffffffffffffff1673ffffffffffffffffffffffffffffffffffffffff16815260200190815260200160002060006101000a81548160ff02191690831515021790555050565b60026020528060005260406000206000915054906101000a900460ff1681565b6000600260008373ffffffffffffffffffffffffffffffffffffffff1673ffffffffffffffffffffffffffffffffffffffff16815260200190815260200160002060009054906101000a900460ff169050919050565b6000819050919050565b61026e8161025b565b82525050565b60006020820190506102896000830184610265565b92915050565b600080fd5b600073ffffffffffffffffffffffffffffffffffffffff82169050919050565b60006102bf82610294565b9050919050565b6102cf816102b4565b81146102da57600080fd5b50565b6000813590506102ec816102c6565b92915050565b6000602082840312156103085761030761028f565b5b6000610316848285016102dd565b91505092915050565b60008115159050919050565b6103348161031f565b82525050565b600060208201905061034f600083018461032b565b92915050565b600082825260208201905092915050565b7f5573657220616c72656164792072656769737465726564000000000000000000600082015250565b600061039c601783610355565b91506103a782610366565b602082019050919050565b600060208201905081810360008301526103cb8161038f565b905091905056fea2646970667358221220e5a6257db97713362a16562b06346fb449d9d70df286b290f932be21bcbbb16f64736f6c63430008130033",
  "immutableReferences": {},
  "source": "//SPDX-License-Identifier: UNLICENSED\npragma solidity >= 0.8.0 <0.9.0;\n\nimport \"@openzeppelin/contracts/security/ReentrancyGuard.sol\";\nimport \"./Trivid.sol\";\n\ncontract TrividUserContract is ReentrancyGuard{\n  using Counters for Counters.Counter;\n  Counters.Counter public userCount;\n\n  mapping(address => bool) public userRegistered;\n\n  address private triNft;\n  address private owner;\n\n  constructor(address nftAdd, address deployer ){\n    triNft = nftAdd;\n    owner = deployer;\n    Trivid(nftAdd).updateMarketPlaceAddress(address(this));\n  }\n  \n  function registerUser (address newUser) public {\n    require(userRegistered[newUser] != true, \"User already registered\");\n    userRegistered[newUser] = true;\n  }\n\n  function isRegistered(address userAdd) public view returns(bool){\n    return userRegistered[userAdd];\n  }\n  \n}\n\n",
  "sourcePath": "/home/astara/Code/web/trivid/contracts/UserContract.sol",
  "compiler": {
    "name": "solc",
    "version": "0.8.19+commit.7dd6d404.Emscripten.clang"
  },
  "schemaVersion": "3.4.13",
  "updatedAt": "2023-05-14T04:25:02.544Z",
  "networkType": "ethereum",
  "devdoc": {
    "kind": "dev",
    "methods": {},
    "version": 1
  },
  "userdoc": {
    "kind": "user",
    "methods": {},
    "version": 1
  }
}