{
  "contractName": "Trivid",
  "abi": [
    {
      "inputs": [],
      "stateMutability": "nonpayable",
      "type": "constructor"
    },
    {
      "anonymous": false,
      "inputs": [
        {
          "indexed": true,
          "internalType": "address",
          "name": "owner",
          "type": "address"
        },
        {
          "indexed": true,
          "internalType": "address",
          "name": "approved",
          "type": "address"
        },
        {
          "indexed": true,
          "internalType": "uint256",
          "name": "tokenId",
          "type": "uint256"
        }
      ],
      "name": "Approval",
      "type": "event"
    },
    {
      "anonymous": false,
      "inputs": [
        {
          "indexed": true,
          "internalType": "address",
          "name": "owner",
          "type": "address"
        },
        {
          "indexed": true,
          "internalType": "address",
          "name": "operator",
          "type": "address"
        },
        {
          "indexed": false,
          "internalType": "bool",
          "name": "approved",
          "type": "bool"
        }
      ],
      "name": "ApprovalForAll",
      "type": "event"
    },
    {
      "anonymous": false,
      "inputs": [
        {
          "indexed": true,
          "internalType": "address",
          "name": "from",
          "type": "address"
        },
        {
          "indexed": true,
          "internalType": "address",
          "name": "to",
          "type": "address"
        },
        {
          "indexed": true,
          "internalType": "uint256",
          "name": "tokenId",
          "type": "uint256"
        }
      ],
      "name": "Transfer",
      "type": "event"
    },
    {
      "inputs": [
        {
          "internalType": "address",
          "name": "to",
          "type": "address"
        },
        {
          "internalType": "uint256",
          "name": "tokenId",
          "type": "uint256"
        }
      ],
      "name": "approve",
      "outputs": [],
      "stateMutability": "nonpayable",
      "type": "function"
    },
    {
      "inputs": [
        {
          "internalType": "address",
          "name": "owner",
          "type": "address"
        }
      ],
      "name": "balanceOf",
      "outputs": [
        {
          "internalType": "uint256",
          "name": "",
          "type": "uint256"
        }
      ],
      "stateMutability": "view",
      "type": "function",
      "constant": true
    },
    {
      "inputs": [
        {
          "internalType": "uint256",
          "name": "tokenId",
          "type": "uint256"
        }
      ],
      "name": "getApproved",
      "outputs": [
        {
          "internalType": "address",
          "name": "",
          "type": "address"
        }
      ],
      "stateMutability": "view",
      "type": "function",
      "constant": true
    },
    {
      "inputs": [
        {
          "internalType": "address",
          "name": "owner",
          "type": "address"
        },
        {
          "internalType": "address",
          "name": "operator",
          "type": "address"
        }
      ],
      "name": "isApprovedForAll",
      "outputs": [
        {
          "internalType": "bool",
          "name": "",
          "type": "bool"
        }
      ],
      "stateMutability": "view",
      "type": "function",
      "constant": true
    },
    {
      "inputs": [],
      "name": "name",
      "outputs": [
        {
          "internalType": "string",
          "name": "",
          "type": "string"
        }
      ],
      "stateMutability": "view",
      "type": "function",
      "constant": true
    },
    {
      "inputs": [
        {
          "internalType": "uint256",
          "name": "tokenId",
          "type": "uint256"
        }
      ],
      "name": "ownerOf",
      "outputs": [
        {
          "internalType": "address",
          "name": "",
          "type": "address"
        }
      ],
      "stateMutability": "view",
      "type": "function",
      "constant": true
    },
    {
      "inputs": [
        {
          "internalType": "address",
          "name": "from",
          "type": "address"
        },
        {
          "internalType": "address",
          "name": "to",
          "type": "address"
        },
        {
          "internalType": "uint256",
          "name": "tokenId",
          "type": "uint256"
        }
      ],
      "name": "safeTransferFrom",
      "outputs": [],
      "stateMutability": "nonpayable",
      "type": "function"
    },
    {
      "inputs": [
        {
          "internalType": "address",
          "name": "from",
          "type": "address"
        },
        {
          "internalType": "address",
          "name": "to",
          "type": "address"
        },
        {
          "internalType": "uint256",
          "name": "tokenId",
          "type": "uint256"
        },
        {
          "internalType": "bytes",
          "name": "data",
          "type": "bytes"
        }
      ],
      "name": "safeTransferFrom",
      "outputs": [],
      "stateMutability": "nonpayable",
      "type": "function"
    },
    {
      "inputs": [
        {
          "internalType": "address",
          "name": "operator",
          "type": "address"
        },
        {
          "internalType": "bool",
          "name": "approved",
          "type": "bool"
        }
      ],
      "name": "setApprovalForAll",
      "outputs": [],
      "stateMutability": "nonpayable",
      "type": "function"
    },
    {
      "inputs": [
        {
          "internalType": "bytes4",
          "name": "interfaceId",
          "type": "bytes4"
        }
      ],
      "name": "supportsInterface",
      "outputs": [
        {
          "internalType": "bool",
          "name": "",
          "type": "bool"
        }
      ],
      "stateMutability": "view",
      "type": "function",
      "constant": true
    },
    {
      "inputs": [],
      "name": "symbol",
      "outputs": [
        {
          "internalType": "string",
          "name": "",
          "type": "string"
        }
      ],
      "stateMutability": "view",
      "type": "function",
      "constant": true
    },
    {
      "inputs": [
        {
          "internalType": "uint256",
          "name": "tokenId",
          "type": "uint256"
        }
      ],
      "name": "tokenURI",
      "outputs": [
        {
          "internalType": "string",
          "name": "",
          "type": "string"
        }
      ],
      "stateMutability": "view",
      "type": "function",
      "constant": true
    },
    {
      "inputs": [
        {
          "internalType": "address",
          "name": "from",
          "type": "address"
        },
        {
          "internalType": "address",
          "name": "to",
          "type": "address"
        },
        {
          "internalType": "uint256",
          "name": "tokenId",
          "type": "uint256"
        }
      ],
      "name": "transferFrom",
      "outputs": [],
      "stateMutability": "nonpayable",
      "type": "function"
    },
    {
      "inputs": [
        {
          "internalType": "address",
          "name": "contractAdd",
          "type": "address"
        }
      ],
      "name": "updateMarketPlaceAddress",
      "outputs": [],
      "stateMutability": "nonpayable",
      "type": "function"
    },
    {
      "inputs": [
        {
          "internalType": "string",
          "name": "tokenUri",
          "type": "string"
        }
      ],
      "name": "mintToken",
      "outputs": [
        {
          "internalType": "uint256",
          "name": "",
          "type": "uint256"
        }
      ],
      "stateMutability": "nonpayable",
      "type": "function"
    },
    {
      "inputs": [
        {
          "internalType": "address",
          "name": "from",
          "type": "address"
        },
        {
          "internalType": "address",
          "name": "to",
          "type": "address"
        },
        {
          "internalType": "uint256",
          "name": "tokenId",
          "type": "uint256"
        }
      ],
      "name": "transferToken",
      "outputs": [],
      "stateMutability": "nonpayable",
      "type": "function"
    },
    {
      "inputs": [
        {
          "internalType": "uint256",
          "name": "tokenId",
          "type": "uint256"
        }
      ],
      "name": "returnOwner",
      "outputs": [
        {
          "internalType": "address",
          "name": "",
          "type": "address"
        }
      ],
      "stateMutability": "view",
      "type": "function",
      "constant": true
    },
    {
      "inputs": [],
      "name": "getLatestTokenId",
      "outputs": [
        {
          "internalType": "uint256",
          "name": "",
          "type": "uint256"
        }
      ],
      "stateMutability": "view",
      "type": "function",
      "constant": true
    }
  ],
  "bytecode": "0x608060405230600760006101000a81548173ffffffffffffffffffffffffffffffffffffffff021916908373ffffffffffffffffffffffffffffffffffffffff1602179055503480156200005257600080fd5b506040518060400160405280600681526020017f54726976696400000000000000000000000000000000000000000000000000008152506040518060400160405280600381526020017f54524900000000000000000000000000000000000000000000000000000000008152508160009081620000d0919062000365565b508060019081620000e2919062000365565b5050506200044c565b600081519050919050565b7f4e487b7100000000000000000000000000000000000000000000000000000000600052604160045260246000fd5b7f4e487b7100000000000000000000000000000000000000000000000000000000600052602260045260246000fd5b600060028204905060018216806200016d57607f821691505b60208210810362000183576200018262000125565b5b50919050565b60008190508160005260206000209050919050565b60006020601f8301049050919050565b600082821b905092915050565b600060088302620001ed7fffffffffffffffffffffffffffffffffffffffffffffffffffffffffffffffff82620001ae565b620001f98683620001ae565b95508019841693508086168417925050509392505050565b6000819050919050565b6000819050919050565b600062000246620002406200023a8462000211565b6200021b565b62000211565b9050919050565b6000819050919050565b620002628362000225565b6200027a62000271826200024d565b848454620001bb565b825550505050565b600090565b6200029162000282565b6200029e81848462000257565b505050565b5b81811015620002c657620002ba60008262000287565b600181019050620002a4565b5050565b601f8211156200031557620002df8162000189565b620002ea846200019e565b81016020851015620002fa578190505b6200031262000309856200019e565b830182620002a3565b50505b505050565b600082821c905092915050565b60006200033a600019846008026200031a565b1980831691505092915050565b600062000355838362000327565b9150826002028217905092915050565b6200037082620000eb565b67ffffffffffffffff8111156200038c576200038b620000f6565b5b62000398825462000154565b620003a5828285620002ca565b600060209050601f831160018114620003dd5760008415620003c8578287015190505b620003d4858262000347565b86555062000444565b601f198416620003ed8662000189565b60005b828110156200041757848901518255600182019150602085019450602081019050620003f0565b8683101562000437578489015162000433601f89168262000327565b8355505b6001600288020188555050505b505050505050565b612f29806200045c6000396000f3fe608060405234801561001057600080fd5b50600436106101165760003560e01c806370a08231116100a2578063b88d4fde11610071578063b88d4fde146102f1578063c87b56dd1461030d578063e985e9c51461033d578063f5537ede1461036d578063f7b435e91461038957610116565b806370a082311461026b57806395d89b411461029b5780639d6e8a89146102b9578063a22cb465146102d557610116565b806323b872dd116100e957806323b872dd146101b557806325d112a9146101d157806333eba49a146101ef57806342842e0e1461021f5780636352211e1461023b57610116565b806301ffc9a71461011b57806306fdde031461014b578063081812fc14610169578063095ea7b314610199575b600080fd5b61013560048036038101906101309190611c75565b6103b9565b6040516101429190611cbd565b60405180910390f35b61015361049b565b6040516101609190611d68565b60405180910390f35b610183600480360381019061017e9190611dc0565b61052d565b6040516101909190611e2e565b60405180910390f35b6101b360048036038101906101ae9190611e75565b610573565b005b6101cf60048036038101906101ca9190611eb5565b61068a565b005b6101d96106ea565b6040516101e69190611f17565b60405180910390f35b61020960048036038101906102049190612067565b6106fb565b6040516102169190611f17565b60405180910390f35b61023960048036038101906102349190611eb5565b6107e4565b005b61025560048036038101906102509190611dc0565b610804565b6040516102629190611e2e565b60405180910390f35b610285600480360381019061028091906120b0565b61088a565b6040516102929190611f17565b60405180910390f35b6102a3610941565b6040516102b09190611d68565b60405180910390f35b6102d360048036038101906102ce91906120b0565b6109d3565b005b6102ef60048036038101906102ea9190612109565b610aff565b005b61030b600480360381019061030691906121ea565b610b15565b005b61032760048036038101906103229190611dc0565b610b77565b6040516103349190611d68565b60405180910390f35b6103576004803603810190610352919061226d565b610c89565b6040516103649190611cbd565b60405180910390f35b61038760048036038101906103829190611eb5565b610d1d565b005b6103a3600480360381019061039e9190611dc0565b610da9565b6040516103b09190611e2e565b60405180910390f35b60007f80ac58cd000000000000000000000000000000000000000000000000000000007bffffffffffffffffffffffffffffffffffffffffffffffffffffffff1916827bffffffffffffffffffffffffffffffffffffffffffffffffffffffff1916148061048457507f5b5e139f000000000000000000000000000000000000000000000000000000007bffffffffffffffffffffffffffffffffffffffffffffffffffffffff1916827bffffffffffffffffffffffffffffffffffffffffffffffffffffffff1916145b80610494575061049382610dbb565b5b9050919050565b6060600080546104aa906122dc565b80601f01602080910402602001604051908101604052809291908181526020018280546104d6906122dc565b80156105235780601f106104f857610100808354040283529160200191610523565b820191906000526020600020905b81548152906001019060200180831161050657829003601f168201915b5050505050905090565b600061053882610e25565b6004600083815260200190815260200160002060009054906101000a900473ffffffffffffffffffffffffffffffffffffffff169050919050565b600061057e82610804565b90508073ffffffffffffffffffffffffffffffffffffffff168373ffffffffffffffffffffffffffffffffffffffff16036105ee576040517f08c379a00000000000000000000000000000000000000000000000000000000081526004016105e59061237f565b60405180910390fd5b8073ffffffffffffffffffffffffffffffffffffffff1661060d610e70565b73ffffffffffffffffffffffffffffffffffffffff16148061063c575061063b81610636610e70565b610c89565b5b61067b576040517f08c379a000000000000000000000000000000000000000000000000000000000815260040161067290612411565b60405180910390fd5b6106858383610e78565b505050565b61069b610695610e70565b82610f31565b6106da576040517f08c379a00000000000000000000000000000000000000000000000000000000081526004016106d1906124a3565b60405180910390fd5b6106e5838383610fc6565b505050565b60006106f660086112bf565b905090565b60003373ffffffffffffffffffffffffffffffffffffffff16600760009054906101000a900473ffffffffffffffffffffffffffffffffffffffff1673ffffffffffffffffffffffffffffffffffffffff161461078d576040517f08c379a000000000000000000000000000000000000000000000000000000000815260040161078490612535565b60405180910390fd5b61079760086112cd565b60006107a360086112bf565b90506107d1600760009054906101000a900473ffffffffffffffffffffffffffffffffffffffff16826112e3565b6107db8184611500565b80915050919050565b6107ff83838360405180602001604052806000815250610b15565b505050565b6000806108108361156d565b9050600073ffffffffffffffffffffffffffffffffffffffff168173ffffffffffffffffffffffffffffffffffffffff1603610881576040517f08c379a0000000000000000000000000000000000000000000000000000000008152600401610878906125a1565b60405180910390fd5b80915050919050565b60008073ffffffffffffffffffffffffffffffffffffffff168273ffffffffffffffffffffffffffffffffffffffff16036108fa576040517f08c379a00000000000000000000000000000000000000000000000000000000081526004016108f190612633565b60405180910390fd5b600360008373ffffffffffffffffffffffffffffffffffffffff1673ffffffffffffffffffffffffffffffffffffffff168152602001908152602001600020549050919050565b606060018054610950906122dc565b80601f016020809104026020016040519081016040528092919081815260200182805461097c906122dc565b80156109c95780601f1061099e576101008083540402835291602001916109c9565b820191906000526020600020905b8154815290600101906020018083116109ac57829003601f168201915b5050505050905090565b3073ffffffffffffffffffffffffffffffffffffffff16600760009054906101000a900473ffffffffffffffffffffffffffffffffffffffff1673ffffffffffffffffffffffffffffffffffffffff161480610a7c57503373ffffffffffffffffffffffffffffffffffffffff16600760009054906101000a900473ffffffffffffffffffffffffffffffffffffffff1673ffffffffffffffffffffffffffffffffffffffff16145b610abb576040517f08c379a0000000000000000000000000000000000000000000000000000000008152600401610ab2906126c5565b60405180910390fd5b80600760006101000a81548173ffffffffffffffffffffffffffffffffffffffff021916908373ffffffffffffffffffffffffffffffffffffffff16021790555050565b610b11610b0a610e70565b83836115aa565b5050565b610b26610b20610e70565b83610f31565b610b65576040517f08c379a0000000000000000000000000000000000000000000000000000000008152600401610b5c906124a3565b60405180910390fd5b610b7184848484611716565b50505050565b6060610b8282610e25565b6000600660008481526020019081526020016000208054610ba2906122dc565b80601f0160208091040260200160405190810160405280929190818152602001828054610bce906122dc565b8015610c1b5780601f10610bf057610100808354040283529160200191610c1b565b820191906000526020600020905b815481529060010190602001808311610bfe57829003601f168201915b505050505090506000610c2c611772565b90506000815103610c41578192505050610c84565b600082511115610c76578082604051602001610c5e929190612721565b60405160208183030381529060405292505050610c84565b610c7f84611789565b925050505b919050565b6000600560008473ffffffffffffffffffffffffffffffffffffffff1673ffffffffffffffffffffffffffffffffffffffff16815260200190815260200160002060008373ffffffffffffffffffffffffffffffffffffffff1673ffffffffffffffffffffffffffffffffffffffff16815260200190815260200160002060009054906101000a900460ff16905092915050565b6000610d2882610da9565b90508373ffffffffffffffffffffffffffffffffffffffff168173ffffffffffffffffffffffffffffffffffffffff1614610d98576040517f08c379a0000000000000000000000000000000000000000000000000000000008152600401610d8f906127b7565b60405180910390fd5b610da384848461068a565b50505050565b6000610db482610804565b9050919050565b60007f01ffc9a7000000000000000000000000000000000000000000000000000000007bffffffffffffffffffffffffffffffffffffffffffffffffffffffff1916827bffffffffffffffffffffffffffffffffffffffffffffffffffffffff1916149050919050565b610e2e816117f1565b610e6d576040517f08c379a0000000000000000000000000000000000000000000000000000000008152600401610e64906125a1565b60405180910390fd5b50565b600033905090565b816004600083815260200190815260200160002060006101000a81548173ffffffffffffffffffffffffffffffffffffffff021916908373ffffffffffffffffffffffffffffffffffffffff160217905550808273ffffffffffffffffffffffffffffffffffffffff16610eeb83610804565b73ffffffffffffffffffffffffffffffffffffffff167f8c5be1e5ebec7d5bd14f71427d1e84f3dd0314c0f7b2291e5b200ac8c7c3b92560405160405180910390a45050565b600080610f3d83610804565b90508073ffffffffffffffffffffffffffffffffffffffff168473ffffffffffffffffffffffffffffffffffffffff161480610f7f5750610f7e8185610c89565b5b80610fbd57508373ffffffffffffffffffffffffffffffffffffffff16610fa58461052d565b73ffffffffffffffffffffffffffffffffffffffff16145b91505092915050565b8273ffffffffffffffffffffffffffffffffffffffff16610fe682610804565b73ffffffffffffffffffffffffffffffffffffffff161461103c576040517f08c379a000000000000000000000000000000000000000000000000000000000815260040161103390612849565b60405180910390fd5b600073ffffffffffffffffffffffffffffffffffffffff168273ffffffffffffffffffffffffffffffffffffffff16036110ab576040517f08c379a00000000000000000000000000000000000000000000000000000000081526004016110a2906128db565b60405180910390fd5b6110b88383836001611832565b8273ffffffffffffffffffffffffffffffffffffffff166110d882610804565b73ffffffffffffffffffffffffffffffffffffffff161461112e576040517f08c379a000000000000000000000000000000000000000000000000000000000815260040161112590612849565b60405180910390fd5b6004600082815260200190815260200160002060006101000a81549073ffffffffffffffffffffffffffffffffffffffff02191690556001600360008573ffffffffffffffffffffffffffffffffffffffff1673ffffffffffffffffffffffffffffffffffffffff168152602001908152602001600020600082825403925050819055506001600360008473ffffffffffffffffffffffffffffffffffffffff1673ffffffffffffffffffffffffffffffffffffffff16815260200190815260200160002060008282540192505081905550816002600083815260200190815260200160002060006101000a81548173ffffffffffffffffffffffffffffffffffffffff021916908373ffffffffffffffffffffffffffffffffffffffff160217905550808273ffffffffffffffffffffffffffffffffffffffff168473ffffffffffffffffffffffffffffffffffffffff167fddf252ad1be2c89b69c2b068fc378daa952ba7f163c4a11628f55a4df523b3ef60405160405180910390a46112ba8383836001611838565b505050565b600081600001549050919050565b6001816000016000828254019250508190555050565b600073ffffffffffffffffffffffffffffffffffffffff168273ffffffffffffffffffffffffffffffffffffffff1603611352576040517f08c379a000000000000000000000000000000000000000000000000000000000815260040161134990612947565b60405180910390fd5b61135b816117f1565b1561139b576040517f08c379a0000000000000000000000000000000000000000000000000000000008152600401611392906129b3565b60405180910390fd5b6113a9600083836001611832565b6113b2816117f1565b156113f2576040517f08c379a00000000000000000000000000000000000000000000000000000000081526004016113e9906129b3565b60405180910390fd5b6001600360008473ffffffffffffffffffffffffffffffffffffffff1673ffffffffffffffffffffffffffffffffffffffff16815260200190815260200160002060008282540192505081905550816002600083815260200190815260200160002060006101000a81548173ffffffffffffffffffffffffffffffffffffffff021916908373ffffffffffffffffffffffffffffffffffffffff160217905550808273ffffffffffffffffffffffffffffffffffffffff16600073ffffffffffffffffffffffffffffffffffffffff167fddf252ad1be2c89b69c2b068fc378daa952ba7f163c4a11628f55a4df523b3ef60405160405180910390a46114fc600083836001611838565b5050565b611509826117f1565b611548576040517f08c379a000000000000000000000000000000000000000000000000000000000815260040161153f90612a45565b60405180910390fd5b806006600084815260200190815260200160002090816115689190612c11565b505050565b60006002600083815260200190815260200160002060009054906101000a900473ffffffffffffffffffffffffffffffffffffffff169050919050565b8173ffffffffffffffffffffffffffffffffffffffff168373ffffffffffffffffffffffffffffffffffffffff1603611618576040517f08c379a000000000000000000000000000000000000000000000000000000000815260040161160f90612d2f565b60405180910390fd5b80600560008573ffffffffffffffffffffffffffffffffffffffff1673ffffffffffffffffffffffffffffffffffffffff16815260200190815260200160002060008473ffffffffffffffffffffffffffffffffffffffff1673ffffffffffffffffffffffffffffffffffffffff16815260200190815260200160002060006101000a81548160ff0219169083151502179055508173ffffffffffffffffffffffffffffffffffffffff168373ffffffffffffffffffffffffffffffffffffffff167f17307eab39ab6107e8899845ad3d59bd9653f200f220920489ca2b5937696c31836040516117099190611cbd565b60405180910390a3505050565b611721848484610fc6565b61172d8484848461183e565b61176c576040517f08c379a000000000000000000000000000000000000000000000000000000000815260040161176390612dc1565b60405180910390fd5b50505050565b606060405180602001604052806000815250905090565b606061179482610e25565b600061179e611772565b905060008151116117be57604051806020016040528060008152506117e9565b806117c8846119c5565b6040516020016117d9929190612721565b6040516020818303038152906040525b915050919050565b60008073ffffffffffffffffffffffffffffffffffffffff166118138361156d565b73ffffffffffffffffffffffffffffffffffffffff1614159050919050565b50505050565b50505050565b600061185f8473ffffffffffffffffffffffffffffffffffffffff16611a93565b156119b8578373ffffffffffffffffffffffffffffffffffffffff1663150b7a02611888610e70565b8786866040518563ffffffff1660e01b81526004016118aa9493929190612e36565b6020604051808303816000875af19250505080156118e657506040513d601f19601f820116820180604052508101906118e39190612e97565b60015b611968573d8060008114611916576040519150601f19603f3d011682016040523d82523d6000602084013e61191b565b606091505b506000815103611960576040517f08c379a000000000000000000000000000000000000000000000000000000000815260040161195790612dc1565b60405180910390fd5b805181602001fd5b63150b7a0260e01b7bffffffffffffffffffffffffffffffffffffffffffffffffffffffff1916817bffffffffffffffffffffffffffffffffffffffffffffffffffffffff1916149150506119bd565b600190505b949350505050565b6060600060016119d484611ab6565b01905060008167ffffffffffffffff8111156119f3576119f2611f3c565b5b6040519080825280601f01601f191660200182016040528015611a255781602001600182028036833780820191505090505b509050600082602001820190505b600115611a88578080600190039150507f3031323334353637383961626364656600000000000000000000000000000000600a86061a8153600a8581611a7c57611a7b612ec4565b5b04945060008503611a33575b819350505050919050565b6000808273ffffffffffffffffffffffffffffffffffffffff163b119050919050565b600080600090507a184f03e93ff9f4daa797ed6e38ed64bf6a1f0100000000000000008310611b14577a184f03e93ff9f4daa797ed6e38ed64bf6a1f0100000000000000008381611b0a57611b09612ec4565b5b0492506040810190505b6d04ee2d6d415b85acef81000000008310611b51576d04ee2d6d415b85acef81000000008381611b4757611b46612ec4565b5b0492506020810190505b662386f26fc100008310611b8057662386f26fc100008381611b7657611b75612ec4565b5b0492506010810190505b6305f5e1008310611ba9576305f5e1008381611b9f57611b9e612ec4565b5b0492506008810190505b6127108310611bce576127108381611bc457611bc3612ec4565b5b0492506004810190505b60648310611bf15760648381611be757611be6612ec4565b5b0492506002810190505b600a8310611c00576001810190505b80915050919050565b6000604051905090565b600080fd5b600080fd5b60007fffffffff0000000000000000000000000000000000000000000000000000000082169050919050565b611c5281611c1d565b8114611c5d57600080fd5b50565b600081359050611c6f81611c49565b92915050565b600060208284031215611c8b57611c8a611c13565b5b6000611c9984828501611c60565b91505092915050565b60008115159050919050565b611cb781611ca2565b82525050565b6000602082019050611cd26000830184611cae565b92915050565b600081519050919050565b600082825260208201905092915050565b60005b83811015611d12578082015181840152602081019050611cf7565b60008484015250505050565b6000601f19601f8301169050919050565b6000611d3a82611cd8565b611d448185611ce3565b9350611d54818560208601611cf4565b611d5d81611d1e565b840191505092915050565b60006020820190508181036000830152611d828184611d2f565b905092915050565b6000819050919050565b611d9d81611d8a565b8114611da857600080fd5b50565b600081359050611dba81611d94565b92915050565b600060208284031215611dd657611dd5611c13565b5b6000611de484828501611dab565b91505092915050565b600073ffffffffffffffffffffffffffffffffffffffff82169050919050565b6000611e1882611ded565b9050919050565b611e2881611e0d565b82525050565b6000602082019050611e436000830184611e1f565b92915050565b611e5281611e0d565b8114611e5d57600080fd5b50565b600081359050611e6f81611e49565b92915050565b60008060408385031215611e8c57611e8b611c13565b5b6000611e9a85828601611e60565b9250506020611eab85828601611dab565b9150509250929050565b600080600060608486031215611ece57611ecd611c13565b5b6000611edc86828701611e60565b9350506020611eed86828701611e60565b9250506040611efe86828701611dab565b9150509250925092565b611f1181611d8a565b82525050565b6000602082019050611f2c6000830184611f08565b92915050565b600080fd5b600080fd5b7f4e487b7100000000000000000000000000000000000000000000000000000000600052604160045260246000fd5b611f7482611d1e565b810181811067ffffffffffffffff82111715611f9357611f92611f3c565b5b80604052505050565b6000611fa6611c09565b9050611fb28282611f6b565b919050565b600067ffffffffffffffff821115611fd257611fd1611f3c565b5b611fdb82611d1e565b9050602081019050919050565b82818337600083830152505050565b600061200a61200584611fb7565b611f9c565b90508281526020810184848401111561202657612025611f37565b5b612031848285611fe8565b509392505050565b600082601f83011261204e5761204d611f32565b5b813561205e848260208601611ff7565b91505092915050565b60006020828403121561207d5761207c611c13565b5b600082013567ffffffffffffffff81111561209b5761209a611c18565b5b6120a784828501612039565b91505092915050565b6000602082840312156120c6576120c5611c13565b5b60006120d484828501611e60565b91505092915050565b6120e681611ca2565b81146120f157600080fd5b50565b600081359050612103816120dd565b92915050565b600080604083850312156121205761211f611c13565b5b600061212e85828601611e60565b925050602061213f858286016120f4565b9150509250929050565b600067ffffffffffffffff82111561216457612163611f3c565b5b61216d82611d1e565b9050602081019050919050565b600061218d61218884612149565b611f9c565b9050828152602081018484840111156121a9576121a8611f37565b5b6121b4848285611fe8565b509392505050565b600082601f8301126121d1576121d0611f32565b5b81356121e184826020860161217a565b91505092915050565b6000806000806080858703121561220457612203611c13565b5b600061221287828801611e60565b945050602061222387828801611e60565b935050604061223487828801611dab565b925050606085013567ffffffffffffffff81111561225557612254611c18565b5b612261878288016121bc565b91505092959194509250565b6000806040838503121561228457612283611c13565b5b600061229285828601611e60565b92505060206122a385828601611e60565b9150509250929050565b7f4e487b7100000000000000000000000000000000000000000000000000000000600052602260045260246000fd5b600060028204905060018216806122f457607f821691505b602082108103612307576123066122ad565b5b50919050565b7f4552433732313a20617070726f76616c20746f2063757272656e74206f776e6560008201527f7200000000000000000000000000000000000000000000000000000000000000602082015250565b6000612369602183611ce3565b91506123748261230d565b604082019050919050565b600060208201905081810360008301526123988161235c565b9050919050565b7f4552433732313a20617070726f76652063616c6c6572206973206e6f7420746f60008201527f6b656e206f776e6572206f7220617070726f76656420666f7220616c6c000000602082015250565b60006123fb603d83611ce3565b91506124068261239f565b604082019050919050565b6000602082019050818103600083015261242a816123ee565b9050919050565b7f4552433732313a2063616c6c6572206973206e6f7420746f6b656e206f776e6560008201527f72206f7220617070726f76656400000000000000000000000000000000000000602082015250565b600061248d602d83611ce3565b915061249882612431565b604082019050919050565b600060208201905081810360008301526124bc81612480565b9050919050565b7f4f6e6c792074686520636f6e7472616374206f776e65722063616e207570646160008201527f7465207468652061646472657373000000000000000000000000000000000000602082015250565b600061251f602e83611ce3565b915061252a826124c3565b604082019050919050565b6000602082019050818103600083015261254e81612512565b9050919050565b7f4552433732313a20696e76616c696420746f6b656e2049440000000000000000600082015250565b600061258b601883611ce3565b915061259682612555565b602082019050919050565b600060208201905081810360008301526125ba8161257e565b9050919050565b7f4552433732313a2061646472657373207a65726f206973206e6f74206120766160008201527f6c6964206f776e65720000000000000000000000000000000000000000000000602082015250565b600061261d602983611ce3565b9150612628826125c1565b604082019050919050565b6000602082019050818103600083015261264c81612610565b9050919050565b7f4164647265737320616c72656164792075706461746564206f72206f6e6c792060008201527f746865206f776e65722063616e20757064617465207468652061646472657373602082015250565b60006126af604083611ce3565b91506126ba82612653565b604082019050919050565b600060208201905081810360008301526126de816126a2565b9050919050565b600081905092915050565b60006126fb82611cd8565b61270581856126e5565b9350612715818560208601611cf4565b80840191505092915050565b600061272d82856126f0565b915061273982846126f0565b91508190509392505050565b7f436f6e74726163742056696f6c6174696f6e21204e6f7420746865206f776e6560008201527f7200000000000000000000000000000000000000000000000000000000000000602082015250565b60006127a1602183611ce3565b91506127ac82612745565b604082019050919050565b600060208201905081810360008301526127d081612794565b9050919050565b7f4552433732313a207472616e736665722066726f6d20696e636f72726563742060008201527f6f776e6572000000000000000000000000000000000000000000000000000000602082015250565b6000612833602583611ce3565b915061283e826127d7565b604082019050919050565b6000602082019050818103600083015261286281612826565b9050919050565b7f4552433732313a207472616e7366657220746f20746865207a65726f2061646460008201527f7265737300000000000000000000000000000000000000000000000000000000602082015250565b60006128c5602483611ce3565b91506128d082612869565b604082019050919050565b600060208201905081810360008301526128f4816128b8565b9050919050565b7f4552433732313a206d696e7420746f20746865207a65726f2061646472657373600082015250565b6000612931602083611ce3565b915061293c826128fb565b602082019050919050565b6000602082019050818103600083015261296081612924565b9050919050565b7f4552433732313a20746f6b656e20616c7265616479206d696e74656400000000600082015250565b600061299d601c83611ce3565b91506129a882612967565b602082019050919050565b600060208201905081810360008301526129cc81612990565b9050919050565b7f45524337323155524953746f726167653a2055524920736574206f66206e6f6e60008201527f6578697374656e7420746f6b656e000000000000000000000000000000000000602082015250565b6000612a2f602e83611ce3565b9150612a3a826129d3565b604082019050919050565b60006020820190508181036000830152612a5e81612a22565b9050919050565b60008190508160005260206000209050919050565b60006020601f8301049050919050565b600082821b905092915050565b600060088302612ac77fffffffffffffffffffffffffffffffffffffffffffffffffffffffffffffffff82612a8a565b612ad18683612a8a565b95508019841693508086168417925050509392505050565b6000819050919050565b6000612b0e612b09612b0484611d8a565b612ae9565b611d8a565b9050919050565b6000819050919050565b612b2883612af3565b612b3c612b3482612b15565b848454612a97565b825550505050565b600090565b612b51612b44565b612b5c818484612b1f565b505050565b5b81811015612b8057612b75600082612b49565b600181019050612b62565b5050565b601f821115612bc557612b9681612a65565b612b9f84612a7a565b81016020851015612bae578190505b612bc2612bba85612a7a565b830182612b61565b50505b505050565b600082821c905092915050565b6000612be860001984600802612bca565b1980831691505092915050565b6000612c018383612bd7565b9150826002028217905092915050565b612c1a82611cd8565b67ffffffffffffffff811115612c3357612c32611f3c565b5b612c3d82546122dc565b612c48828285612b84565b600060209050601f831160018114612c7b5760008415612c69578287015190505b612c738582612bf5565b865550612cdb565b601f198416612c8986612a65565b60005b82811015612cb157848901518255600182019150602085019450602081019050612c8c565b86831015612cce5784890151612cca601f891682612bd7565b8355505b6001600288020188555050505b505050505050565b7f4552433732313a20617070726f766520746f2063616c6c657200000000000000600082015250565b6000612d19601983611ce3565b9150612d2482612ce3565b602082019050919050565b60006020820190508181036000830152612d4881612d0c565b9050919050565b7f4552433732313a207472616e7366657220746f206e6f6e20455243373231526560008201527f63656976657220696d706c656d656e7465720000000000000000000000000000602082015250565b6000612dab603283611ce3565b9150612db682612d4f565b604082019050919050565b60006020820190508181036000830152612dda81612d9e565b9050919050565b600081519050919050565b600082825260208201905092915050565b6000612e0882612de1565b612e128185612dec565b9350612e22818560208601611cf4565b612e2b81611d1e565b840191505092915050565b6000608082019050612e4b6000830187611e1f565b612e586020830186611e1f565b612e656040830185611f08565b8181036060830152612e778184612dfd565b905095945050505050565b600081519050612e9181611c49565b92915050565b600060208284031215612ead57612eac611c13565b5b6000612ebb84828501612e82565b91505092915050565b7f4e487b7100000000000000000000000000000000000000000000000000000000600052601260045260246000fdfea26469706673582212202784ae0d3168380a3c0b0e75db49fb7bb62eb2d71b663b78d75c1fca52ac587264736f6c63430008130033",
  "immutableReferences": {},
  "source": "// SPDX-License-Identifier: UNLICENSED\npragma solidity >= 0.8.0 <0.9.0;\n\nimport '@openzeppelin/contracts/token/ERC721/extensions/ERC721URIStorage.sol';\nimport '@openzeppelin/contracts/utils/Counters.sol';\n\ncontract Trivid is ERC721URIStorage{\n  using Counters for Counters.Counter;\n  \n  address contractAddress = address(this);\n  Counters.Counter private _tokenId;\n\n  constructor() ERC721(\"Trivid\", \"TRI\") {}\n\n  function updateMarketPlaceAddress(address contractAdd) public {\n    require(contractAddress == address(this) || contractAddress == msg.sender, \"Address already updated or only the owner can update the address\");\n    contractAddress = contractAdd;\n  }\n\n  function mintToken(string memory tokenUri) public returns(uint256) {\n    require(contractAddress == msg.sender, \"Only the contract owner can update the address\");\n    _tokenId.increment();\n    uint256 currTokenId = _tokenId.current();\n    _mint(contractAddress, currTokenId);\n    _setTokenURI(currTokenId, tokenUri);\n    return currTokenId;\n  }\n\n  function transferToken(address from, address to, uint256 tokenId) public {\n    address owner = returnOwner(tokenId);\n    require(owner == from, \"Contract Violation! Not the owner\");\n    transferFrom(from, to, tokenId);\n  }\n\n  function returnOwner(uint256 tokenId) public view returns(address){\n    return ownerOf(tokenId);\n  }\n\n  function getLatestTokenId() public view returns(uint256){\n    return _tokenId.current();\n  }\n\n}\n\n",
  "sourcePath": "/home/astara/Code/web/trivid/contracts/Trivid.sol",
  "compiler": {
    "name": "solc",
    "version": "0.8.19+commit.7dd6d404.Emscripten.clang"
  },
  "schemaVersion": "3.4.13",
  "updatedAt": "2023-05-18T14:12:32.133Z",
  "networkType": "ethereum",
  "devdoc": {
    "events": {
      "Approval(address,address,uint256)": {
        "details": "Emitted when `owner` enables `approved` to manage the `tokenId` token."
      },
      "ApprovalForAll(address,address,bool)": {
        "details": "Emitted when `owner` enables or disables (`approved`) `operator` to manage all of its assets."
      },
      "Transfer(address,address,uint256)": {
        "details": "Emitted when `tokenId` token is transferred from `from` to `to`."
      }
    },
    "kind": "dev",
    "methods": {
      "approve(address,uint256)": {
        "details": "See {IERC721-approve}."
      },
      "balanceOf(address)": {
        "details": "See {IERC721-balanceOf}."
      },
      "getApproved(uint256)": {
        "details": "See {IERC721-getApproved}."
      },
      "isApprovedForAll(address,address)": {
        "details": "See {IERC721-isApprovedForAll}."
      },
      "name()": {
        "details": "See {IERC721Metadata-name}."
      },
      "ownerOf(uint256)": {
        "details": "See {IERC721-ownerOf}."
      },
      "safeTransferFrom(address,address,uint256)": {
        "details": "See {IERC721-safeTransferFrom}."
      },
      "safeTransferFrom(address,address,uint256,bytes)": {
        "details": "See {IERC721-safeTransferFrom}."
      },
      "setApprovalForAll(address,bool)": {
        "details": "See {IERC721-setApprovalForAll}."
      },
      "supportsInterface(bytes4)": {
        "details": "See {IERC165-supportsInterface}."
      },
      "symbol()": {
        "details": "See {IERC721Metadata-symbol}."
      },
      "tokenURI(uint256)": {
        "details": "See {IERC721Metadata-tokenURI}."
      },
      "transferFrom(address,address,uint256)": {
        "details": "See {IERC721-transferFrom}."
      }
    },
    "version": 1
  },
  "userdoc": {
    "kind": "user",
    "methods": {},
    "version": 1
  }
}