{
  "contractName": "TrividUserContract",
  "abi": [
    {
      "inputs": [
        {
          "internalType": "address",
          "name": "nftAdd",
          "type": "address"
        },
        {
          "internalType": "address",
          "name": "deployer",
          "type": "address"
        }
      ],
      "stateMutability": "nonpayable",
      "type": "constructor"
    },
    {
      "inputs": [],
      "name": "userCount",
      "outputs": [
        {
          "internalType": "uint256",
          "name": "_value",
          "type": "uint256"
        }
      ],
      "stateMutability": "view",
      "type": "function",
      "constant": true
    },
    {
      "inputs": [
        {
          "internalType": "address",
          "name": "",
          "type": "address"
        }
      ],
      "name": "userRegistered",
      "outputs": [
        {
          "internalType": "bool",
          "name": "",
          "type": "bool"
        }
      ],
      "stateMutability": "view",
      "type": "function",
      "constant": true
    },
    {
      "inputs": [
        {
          "internalType": "address",
          "name": "",
          "type": "address"
        }
      ],
      "name": "userToId",
      "outputs": [
        {
          "internalType": "string",
          "name": "",
          "type": "string"
        }
      ],
      "stateMutability": "view",
      "type": "function",
      "constant": true
    },
    {
      "inputs": [
        {
          "internalType": "address",
          "name": "newUser",
          "type": "address"
        },
        {
          "internalType": "string",
          "name": "id",
          "type": "string"
        }
      ],
      "name": "registerUser",
      "outputs": [],
      "stateMutability": "nonpayable",
      "type": "function"
    },
    {
      "inputs": [
        {
          "internalType": "address",
          "name": "userAdd",
          "type": "address"
        }
      ],
      "name": "isRegistered",
      "outputs": [
        {
          "internalType": "bool",
          "name": "",
          "type": "bool"
        }
      ],
      "stateMutability": "view",
      "type": "function",
      "constant": true
    },
    {
      "inputs": [
        {
          "internalType": "address",
          "name": "user",
          "type": "address"
        }
      ],
      "name": "getUserId",
      "outputs": [
        {
          "internalType": "string",
          "name": "",
          "type": "string"
        }
      ],
      "stateMutability": "view",
      "type": "function",
      "constant": true
    }
  ],
  "bytecode": "0x60806040523480156200001157600080fd5b5060405162000e3638038062000e368339818101604052810190620000379190620001a2565b600160008190555081600460006101000a81548173ffffffffffffffffffffffffffffffffffffffff021916908373ffffffffffffffffffffffffffffffffffffffff16021790555080600560006101000a81548173ffffffffffffffffffffffffffffffffffffffff021916908373ffffffffffffffffffffffffffffffffffffffff1602179055508173ffffffffffffffffffffffffffffffffffffffff16639d6e8a89306040518263ffffffff1660e01b8152600401620000fc9190620001fa565b600060405180830381600087803b1580156200011757600080fd5b505af11580156200012c573d6000803e3d6000fd5b50505050505062000217565b600080fd5b600073ffffffffffffffffffffffffffffffffffffffff82169050919050565b60006200016a826200013d565b9050919050565b6200017c816200015d565b81146200018857600080fd5b50565b6000815190506200019c8162000171565b92915050565b60008060408385031215620001bc57620001bb62000138565b5b6000620001cc858286016200018b565b9250506020620001df858286016200018b565b9150509250929050565b620001f4816200015d565b82525050565b6000602082019050620002116000830184620001e9565b92915050565b610c0f80620002276000396000f3fe608060405234801561001057600080fd5b50600436106100625760003560e01c806307973ccf146100675780630b4805d3146100855780630ea126f9146100b55780632b956ff7146100d1578063bccbc36c14610101578063c3c5a54714610131575b600080fd5b61006f610161565b60405161007c9190610536565b60405180910390f35b61009f600480360381019061009a91906105c3565b61016d565b6040516100ac9190610680565b60405180910390f35b6100cf60048036038101906100ca91906107d7565b61020d565b005b6100eb60048036038101906100e691906105c3565b610346565b6040516100f89190610680565b60405180910390f35b61011b600480360381019061011691906105c3565b6104a7565b604051610128919061084e565b60405180910390f35b61014b600480360381019061014691906105c3565b6104c7565b604051610158919061084e565b60405180910390f35b60018060000154905081565b6003602052806000526040600020600091509050805461018c90610898565b80601f01602080910402602001604051908101604052809291908181526020018280546101b890610898565b80156102055780601f106101da57610100808354040283529160200191610205565b820191906000526020600020905b8154815290600101906020018083116101e857829003601f168201915b505050505081565b600560009054906101000a900473ffffffffffffffffffffffffffffffffffffffff1673ffffffffffffffffffffffffffffffffffffffff163373ffffffffffffffffffffffffffffffffffffffff161461029d576040517f08c379a00000000000000000000000000000000000000000000000000000000081526004016102949061093b565b60405180910390fd5b80600360008473ffffffffffffffffffffffffffffffffffffffff1673ffffffffffffffffffffffffffffffffffffffff16815260200190815260200160002090816102e99190610b07565b506001600260008473ffffffffffffffffffffffffffffffffffffffff1673ffffffffffffffffffffffffffffffffffffffff16815260200190815260200160002060006101000a81548160ff0219169083151502179055505050565b6060600560009054906101000a900473ffffffffffffffffffffffffffffffffffffffff1673ffffffffffffffffffffffffffffffffffffffff163373ffffffffffffffffffffffffffffffffffffffff16146103d8576040517f08c379a00000000000000000000000000000000000000000000000000000000081526004016103cf9061093b565b60405180910390fd5b600360008373ffffffffffffffffffffffffffffffffffffffff1673ffffffffffffffffffffffffffffffffffffffff168152602001908152602001600020805461042290610898565b80601f016020809104026020016040519081016040528092919081815260200182805461044e90610898565b801561049b5780601f106104705761010080835404028352916020019161049b565b820191906000526020600020905b81548152906001019060200180831161047e57829003601f168201915b50505050509050919050565b60026020528060005260406000206000915054906101000a900460ff1681565b6000600260008373ffffffffffffffffffffffffffffffffffffffff1673ffffffffffffffffffffffffffffffffffffffff16815260200190815260200160002060009054906101000a900460ff169050919050565b6000819050919050565b6105308161051d565b82525050565b600060208201905061054b6000830184610527565b92915050565b6000604051905090565b600080fd5b600080fd5b600073ffffffffffffffffffffffffffffffffffffffff82169050919050565b600061059082610565565b9050919050565b6105a081610585565b81146105ab57600080fd5b50565b6000813590506105bd81610597565b92915050565b6000602082840312156105d9576105d861055b565b5b60006105e7848285016105ae565b91505092915050565b600081519050919050565b600082825260208201905092915050565b60005b8381101561062a57808201518184015260208101905061060f565b60008484015250505050565b6000601f19601f8301169050919050565b6000610652826105f0565b61065c81856105fb565b935061066c81856020860161060c565b61067581610636565b840191505092915050565b6000602082019050818103600083015261069a8184610647565b905092915050565b600080fd5b600080fd5b7f4e487b7100000000000000000000000000000000000000000000000000000000600052604160045260246000fd5b6106e482610636565b810181811067ffffffffffffffff82111715610703576107026106ac565b5b80604052505050565b6000610716610551565b905061072282826106db565b919050565b600067ffffffffffffffff821115610742576107416106ac565b5b61074b82610636565b9050602081019050919050565b82818337600083830152505050565b600061077a61077584610727565b61070c565b905082815260208101848484011115610796576107956106a7565b5b6107a1848285610758565b509392505050565b600082601f8301126107be576107bd6106a2565b5b81356107ce848260208601610767565b91505092915050565b600080604083850312156107ee576107ed61055b565b5b60006107fc858286016105ae565b925050602083013567ffffffffffffffff81111561081d5761081c610560565b5b610829858286016107a9565b9150509250929050565b60008115159050919050565b61084881610833565b82525050565b6000602082019050610863600083018461083f565b92915050565b7f4e487b7100000000000000000000000000000000000000000000000000000000600052602260045260246000fd5b600060028204905060018216806108b057607f821691505b6020821081036108c3576108c2610869565b5b50919050565b7f4f6e6c792074686520636f6e74726163742063616e2063616c6c20746869732060008201527f6d6574686f640000000000000000000000000000000000000000000000000000602082015250565b60006109256026836105fb565b9150610930826108c9565b604082019050919050565b6000602082019050818103600083015261095481610918565b9050919050565b60008190508160005260206000209050919050565b60006020601f8301049050919050565b600082821b905092915050565b6000600883026109bd7fffffffffffffffffffffffffffffffffffffffffffffffffffffffffffffffff82610980565b6109c78683610980565b95508019841693508086168417925050509392505050565b6000819050919050565b6000610a046109ff6109fa8461051d565b6109df565b61051d565b9050919050565b6000819050919050565b610a1e836109e9565b610a32610a2a82610a0b565b84845461098d565b825550505050565b600090565b610a47610a3a565b610a52818484610a15565b505050565b5b81811015610a7657610a6b600082610a3f565b600181019050610a58565b5050565b601f821115610abb57610a8c8161095b565b610a9584610970565b81016020851015610aa4578190505b610ab8610ab085610970565b830182610a57565b50505b505050565b600082821c905092915050565b6000610ade60001984600802610ac0565b1980831691505092915050565b6000610af78383610acd565b9150826002028217905092915050565b610b10826105f0565b67ffffffffffffffff811115610b2957610b286106ac565b5b610b338254610898565b610b3e828285610a7a565b600060209050601f831160018114610b715760008415610b5f578287015190505b610b698582610aeb565b865550610bd1565b601f198416610b7f8661095b565b60005b82811015610ba757848901518255600182019150602085019450602081019050610b82565b86831015610bc45784890151610bc0601f891682610acd565b8355505b6001600288020188555050505b50505050505056fea264697066735822122024032df1dd28dff4c8fba4cd1ca43023a951c4fcfd713daa2e169247fabdb94364736f6c63430008130033",
  "immutableReferences": {},
  "source": "//SPDX-License-Identifier: UNLICENSED\npragma solidity >= 0.8.0 <0.9.0;\n\nimport \"@openzeppelin/contracts/security/ReentrancyGuard.sol\";\nimport \"./Trivid.sol\";\n\ncontract TrividUserContract is ReentrancyGuard{\n  using Counters for Counters.Counter;\n  Counters.Counter public userCount;\n\n  mapping(address => bool) public userRegistered;\n  mapping(address => string) public userToId;\n\n  address private triNft;\n  address private owner;\n\n  constructor(address nftAdd, address deployer ){\n    triNft = nftAdd;\n    owner = deployer;\n    Trivid(nftAdd).updateMarketPlaceAddress(address(this));\n  }\n  \n  function registerUser (address newUser, string memory id) public {\n    require(msg.sender == owner, \"Only the contract can call this method\");\n    userToId[newUser] = id;\n    userRegistered[newUser] = true;\n  } \n\n  function isRegistered(address userAdd) public view returns(bool){\n    return userRegistered[userAdd];\n  }\n\n  function getUserId(address user) public view returns(string memory){\n    require(msg.sender == owner, \"Only the contract can call this method\");\n    return userToId[user];\n  }\n  \n}\n",
  "sourcePath": "/home/astara/Code/web/trivid/contracts/UserContract.sol",
  "compiler": {
    "name": "solc",
    "version": "0.8.19+commit.7dd6d404.Emscripten.clang"
  },
  "schemaVersion": "3.4.13",
  "updatedAt": "2023-05-11T16:09:02.136Z",
  "networkType": "ethereum",
  "devdoc": {
    "kind": "dev",
    "methods": {},
    "version": 1
  },
  "userdoc": {
    "kind": "user",
    "methods": {},
    "version": 1
  }
}